{
  "contracts/Migrator-7702.sol": {
    "Migrator7702": {
      "abi": [
        {
          "inputs": [],
          "stateMutability": "nonpayable",
          "type": "constructor"
        },
        {
          "inputs": [
            {
              "components": [
                {
                  "internalType": "address",
                  "name": "target",
                  "type": "address"
                },
                {
                  "internalType": "bool",
                  "name": "allowFailure",
                  "type": "bool"
                },
                {
                  "internalType": "uint256",
                  "name": "value",
                  "type": "uint256"
                },
                {
                  "internalType": "bytes",
                  "name": "callData",
                  "type": "bytes"
                }
              ],
              "internalType": "struct Migrator7702.Call3Value[]",
              "name": "calls",
              "type": "tuple[]"
            }
          ],
          "name": "aggregate3Value",
          "outputs": [
            {
              "components": [
                {
                  "internalType": "bool",
                  "name": "success",
                  "type": "bool"
                },
                {
                  "internalType": "bytes",
                  "name": "returnData",
                  "type": "bytes"
                }
              ],
              "internalType": "struct Migrator7702.Result[]",
              "name": "returnData",
              "type": "tuple[]"
            }
          ],
          "stateMutability": "payable",
          "type": "function"
        },
        {
          "inputs": [],
          "name": "owner",
          "outputs": [
            {
              "internalType": "address",
              "name": "",
              "type": "address"
            }
          ],
          "stateMutability": "view",
          "type": "function"
        }
      ],
      "evm": {
        "bytecode": {
          "linkReferences": {},
          "object": "60a0604052348015600f57600080fd5b503373ffffffffffffffffffffffffffffffffffffffff1660808173ffffffffffffffffffffffffffffffffffffffff16815250506080516109216100656000396000818160a4015261033701526109216000f3fe6080604052600436106100295760003560e01c8063174dea711461002e5780638da5cb5b1461005e575b600080fd5b610048600480360381019061004391906103e4565b610089565b60405161005591906105db565b60405180910390f35b34801561006a57600080fd5b50610073610335565b604051610080919061063e565b60405180910390f35b60603373ffffffffffffffffffffffffffffffffffffffff167f000000000000000000000000000000000000000000000000000000000000000073ffffffffffffffffffffffffffffffffffffffff1614610119576040517f08c379a0000000000000000000000000000000000000000000000000000000008152600401610110906106b6565b60405180910390fd5b6000808484905090508067ffffffffffffffff81111561013c5761013b6106d6565b5b60405190808252806020026020018201604052801561017557816020015b610162610359565b81526020019060019003908161015a5790505b5092503660005b828110156102e957600085828151811061019957610198610705565b5b602002602001015190508787838181106101b6576101b5610705565b5b90506020028101906101c89190610743565b925060008360400135905080860195508360000160208101906101eb9190610797565b73ffffffffffffffffffffffffffffffffffffffff168185806060019061021291906107c4565b604051610220929190610866565b60006040518083038185875af1925050503d806000811461025d576040519150601f19603f3d011682016040523d82523d6000602084013e610262565b606091505b5083600001846020018290528215151515815250505081516020850135176102dc577f08c379a000000000000000000000000000000000000000000000000000000000600052602060045260176024527f4d756c746963616c6c333a2063616c6c206661696c656400000000000000000060445260846000fd5b826001019250505061017c565b5082341461032c576040517f08c379a0000000000000000000000000000000000000000000000000000000008152600401610323906108cb565b60405180910390fd5b50505092915050565b7f000000000000000000000000000000000000000000000000000000000000000081565b6040518060400160405280600015158152602001606081525090565b600080fd5b600080fd5b600080fd5b600080fd5b600080fd5b60008083601f8401126103a4576103a361037f565b5b8235905067ffffffffffffffff8111156103c1576103c0610384565b5b6020830191508360208202830111156103dd576103dc610389565b5b9250929050565b600080602083850312156103fb576103fa610375565b5b600083013567ffffffffffffffff8111156104195761041861037a565b5b6104258582860161038e565b92509250509250929050565b600081519050919050565b600082825260208201905092915050565b6000819050602082019050919050565b60008115159050919050565b6104728161045d565b82525050565b600081519050919050565b600082825260208201905092915050565b60005b838110156104b2578082015181840152602081019050610497565b60008484015250505050565b6000601f19601f8301169050919050565b60006104da82610478565b6104e48185610483565b93506104f4818560208601610494565b6104fd816104be565b840191505092915050565b60006040830160008301516105206000860182610469565b506020830151848203602086015261053882826104cf565b9150508091505092915050565b60006105518383610508565b905092915050565b6000602082019050919050565b600061057182610431565b61057b818561043c565b93508360208202850161058d8561044d565b8060005b858110156105c957848403895281516105aa8582610545565b94506105b583610559565b925060208a01995050600181019050610591565b50829750879550505050505092915050565b600060208201905081810360008301526105f58184610566565b905092915050565b600073ffffffffffffffffffffffffffffffffffffffff82169050919050565b6000610628826105fd565b9050919050565b6106388161061d565b82525050565b6000602082019050610653600083018461062f565b92915050565b600082825260208201905092915050565b7f4f6e6c79206f776e657200000000000000000000000000000000000000000000600082015250565b60006106a0600a83610659565b91506106ab8261066a565b602082019050919050565b600060208201905081810360008301526106cf81610693565b9050919050565b7f4e487b7100000000000000000000000000000000000000000000000000000000600052604160045260246000fd5b7f4e487b7100000000000000000000000000000000000000000000000000000000600052603260045260246000fd5b600080fd5b600080fd5b600080fd5b60008235600160800383360303811261075f5761075e610734565b5b80830191505092915050565b6107748161061d565b811461077f57600080fd5b50565b6000813590506107918161076b565b92915050565b6000602082840312156107ad576107ac610375565b5b60006107bb84828501610782565b91505092915050565b600080833560016020038436030381126107e1576107e0610734565b5b80840192508235915067ffffffffffffffff82111561080357610802610739565b5b60208301925060018202360383131561081f5761081e61073e565b5b509250929050565b600081905092915050565b82818337600083830152505050565b600061084d8385610827565b935061085a838584610832565b82840190509392505050565b6000610873828486610841565b91508190509392505050565b7f4d756c746963616c6c333a2076616c7565206d69736d61746368000000000000600082015250565b60006108b5601a83610659565b91506108c08261087f565b602082019050919050565b600060208201905081810360008301526108e4816108a8565b905091905056fea26469706673582212206cdb8e5e60f90c18574bd5d0b6fa7ad5aafae74e71e9d42acae769ffede8dc8a64736f6c634300081c0033",
          "opcodes": "PUSH1 0xA0 PUSH1 0x40 MSTORE CALLVALUE DUP1 ISZERO PUSH1 0xF JUMPI PUSH1 0x0 DUP1 REVERT JUMPDEST POP CALLER PUSH20 0xFFFFFFFFFFFFFFFFFFFFFFFFFFFFFFFFFFFFFFFF AND PUSH1 0x80 DUP2 PUSH20 0xFFFFFFFFFFFFFFFFFFFFFFFFFFFFFFFFFFFFFFFF AND DUP2 MSTORE POP POP PUSH1 0x80 MLOAD PUSH2 0x921 PUSH2 0x65 PUSH1 0x0 CODECOPY PUSH1 0x0 DUP2 DUP2 PUSH1 0xA4 ADD MSTORE PUSH2 0x337 ADD MSTORE PUSH2 0x921 PUSH1 0x0 RETURN INVALID PUSH1 0x80 PUSH1 0x40 MSTORE PUSH1 0x4 CALLDATASIZE LT PUSH2 0x29 JUMPI PUSH1 0x0 CALLDATALOAD PUSH1 0xE0 SHR DUP1 PUSH4 0x174DEA71 EQ PUSH2 0x2E JUMPI DUP1 PUSH4 0x8DA5CB5B EQ PUSH2 0x5E JUMPI JUMPDEST PUSH1 0x0 DUP1 REVERT JUMPDEST PUSH2 0x48 PUSH1 0x4 DUP1 CALLDATASIZE SUB DUP2 ADD SWAP1 PUSH2 0x43 SWAP2 SWAP1 PUSH2 0x3E4 JUMP JUMPDEST PUSH2 0x89 JUMP JUMPDEST PUSH1 0x40 MLOAD PUSH2 0x55 SWAP2 SWAP1 PUSH2 0x5DB JUMP JUMPDEST PUSH1 0x40 MLOAD DUP1 SWAP2 SUB SWAP1 RETURN JUMPDEST CALLVALUE DUP1 ISZERO PUSH2 0x6A JUMPI PUSH1 0x0 DUP1 REVERT JUMPDEST POP PUSH2 0x73 PUSH2 0x335 JUMP JUMPDEST PUSH1 0x40 MLOAD PUSH2 0x80 SWAP2 SWAP1 PUSH2 0x63E JUMP JUMPDEST PUSH1 0x40 MLOAD DUP1 SWAP2 SUB SWAP1 RETURN JUMPDEST PUSH1 0x60 CALLER PUSH20 0xFFFFFFFFFFFFFFFFFFFFFFFFFFFFFFFFFFFFFFFF AND PUSH32 0x0 PUSH20 0xFFFFFFFFFFFFFFFFFFFFFFFFFFFFFFFFFFFFFFFF AND EQ PUSH2 0x119 JUMPI PUSH1 0x40 MLOAD PUSH32 0x8C379A000000000000000000000000000000000000000000000000000000000 DUP2 MSTORE PUSH1 0x4 ADD PUSH2 0x110 SWAP1 PUSH2 0x6B6 JUMP JUMPDEST PUSH1 0x40 MLOAD DUP1 SWAP2 SUB SWAP1 REVERT JUMPDEST PUSH1 0x0 DUP1 DUP5 DUP5 SWAP1 POP SWAP1 POP DUP1 PUSH8 0xFFFFFFFFFFFFFFFF DUP2 GT ISZERO PUSH2 0x13C JUMPI PUSH2 0x13B PUSH2 0x6D6 JUMP JUMPDEST JUMPDEST PUSH1 0x40 MLOAD SWAP1 DUP1 DUP3 MSTORE DUP1 PUSH1 0x20 MUL PUSH1 0x20 ADD DUP3 ADD PUSH1 0x40 MSTORE DUP1 ISZERO PUSH2 0x175 JUMPI DUP2 PUSH1 0x20 ADD JUMPDEST PUSH2 0x162 PUSH2 0x359 JUMP JUMPDEST DUP2 MSTORE PUSH1 0x20 ADD SWAP1 PUSH1 0x1 SWAP1 SUB SWAP1 DUP2 PUSH2 0x15A JUMPI SWAP1 POP JUMPDEST POP SWAP3 POP CALLDATASIZE PUSH1 0x0 JUMPDEST DUP3 DUP2 LT ISZERO PUSH2 0x2E9 JUMPI PUSH1 0x0 DUP6 DUP3 DUP2 MLOAD DUP2 LT PUSH2 0x199 JUMPI PUSH2 0x198 PUSH2 0x705 JUMP JUMPDEST JUMPDEST PUSH1 0x20 MUL PUSH1 0x20 ADD ADD MLOAD SWAP1 POP DUP8 DUP8 DUP4 DUP2 DUP2 LT PUSH2 0x1B6 JUMPI PUSH2 0x1B5 PUSH2 0x705 JUMP JUMPDEST JUMPDEST SWAP1 POP PUSH1 0x20 MUL DUP2 ADD SWAP1 PUSH2 0x1C8 SWAP2 SWAP1 PUSH2 0x743 JUMP JUMPDEST SWAP3 POP PUSH1 0x0 DUP4 PUSH1 0x40 ADD CALLDATALOAD SWAP1 POP DUP1 DUP7 ADD SWAP6 POP DUP4 PUSH1 0x0 ADD PUSH1 0x20 DUP2 ADD SWAP1 PUSH2 0x1EB SWAP2 SWAP1 PUSH2 0x797 JUMP JUMPDEST PUSH20 0xFFFFFFFFFFFFFFFFFFFFFFFFFFFFFFFFFFFFFFFF AND DUP2 DUP6 DUP1 PUSH1 0x60 ADD SWAP1 PUSH2 0x212 SWAP2 SWAP1 PUSH2 0x7C4 JUMP JUMPDEST PUSH1 0x40 MLOAD PUSH2 0x220 SWAP3 SWAP2 SWAP1 PUSH2 0x866 JUMP JUMPDEST PUSH1 0x0 PUSH1 0x40 MLOAD DUP1 DUP4 SUB DUP2 DUP6 DUP8 GAS CALL SWAP3 POP POP POP RETURNDATASIZE DUP1 PUSH1 0x0 DUP2 EQ PUSH2 0x25D JUMPI PUSH1 0x40 MLOAD SWAP2 POP PUSH1 0x1F NOT PUSH1 0x3F RETURNDATASIZE ADD AND DUP3 ADD PUSH1 0x40 MSTORE RETURNDATASIZE DUP3 MSTORE RETURNDATASIZE PUSH1 0x0 PUSH1 0x20 DUP5 ADD RETURNDATACOPY PUSH2 0x262 JUMP JUMPDEST PUSH1 0x60 SWAP2 POP JUMPDEST POP DUP4 PUSH1 0x0 ADD DUP5 PUSH1 0x20 ADD DUP3 SWAP1 MSTORE DUP3 ISZERO ISZERO ISZERO ISZERO DUP2 MSTORE POP POP POP DUP2 MLOAD PUSH1 0x20 DUP6 ADD CALLDATALOAD OR PUSH2 0x2DC JUMPI PUSH32 0x8C379A000000000000000000000000000000000000000000000000000000000 PUSH1 0x0 MSTORE PUSH1 0x20 PUSH1 0x4 MSTORE PUSH1 0x17 PUSH1 0x24 MSTORE PUSH32 0x4D756C746963616C6C333A2063616C6C206661696C6564000000000000000000 PUSH1 0x44 MSTORE PUSH1 0x84 PUSH1 0x0 REVERT JUMPDEST DUP3 PUSH1 0x1 ADD SWAP3 POP POP POP PUSH2 0x17C JUMP JUMPDEST POP DUP3 CALLVALUE EQ PUSH2 0x32C JUMPI PUSH1 0x40 MLOAD PUSH32 0x8C379A000000000000000000000000000000000000000000000000000000000 DUP2 MSTORE PUSH1 0x4 ADD PUSH2 0x323 SWAP1 PUSH2 0x8CB JUMP JUMPDEST PUSH1 0x40 MLOAD DUP1 SWAP2 SUB SWAP1 REVERT JUMPDEST POP POP POP SWAP3 SWAP2 POP POP JUMP JUMPDEST PUSH32 0x0 DUP2 JUMP JUMPDEST PUSH1 0x40 MLOAD DUP1 PUSH1 0x40 ADD PUSH1 0x40 MSTORE DUP1 PUSH1 0x0 ISZERO ISZERO DUP2 MSTORE PUSH1 0x20 ADD PUSH1 0x60 DUP2 MSTORE POP SWAP1 JUMP JUMPDEST PUSH1 0x0 DUP1 REVERT JUMPDEST PUSH1 0x0 DUP1 REVERT JUMPDEST PUSH1 0x0 DUP1 REVERT JUMPDEST PUSH1 0x0 DUP1 REVERT JUMPDEST PUSH1 0x0 DUP1 REVERT JUMPDEST PUSH1 0x0 DUP1 DUP4 PUSH1 0x1F DUP5 ADD SLT PUSH2 0x3A4 JUMPI PUSH2 0x3A3 PUSH2 0x37F JUMP JUMPDEST JUMPDEST DUP3 CALLDATALOAD SWAP1 POP PUSH8 0xFFFFFFFFFFFFFFFF DUP2 GT ISZERO PUSH2 0x3C1 JUMPI PUSH2 0x3C0 PUSH2 0x384 JUMP JUMPDEST JUMPDEST PUSH1 0x20 DUP4 ADD SWAP2 POP DUP4 PUSH1 0x20 DUP3 MUL DUP4 ADD GT ISZERO PUSH2 0x3DD JUMPI PUSH2 0x3DC PUSH2 0x389 JUMP JUMPDEST JUMPDEST SWAP3 POP SWAP3 SWAP1 POP JUMP JUMPDEST PUSH1 0x0 DUP1 PUSH1 0x20 DUP4 DUP6 SUB SLT ISZERO PUSH2 0x3FB JUMPI PUSH2 0x3FA PUSH2 0x375 JUMP JUMPDEST JUMPDEST PUSH1 0x0 DUP4 ADD CALLDATALOAD PUSH8 0xFFFFFFFFFFFFFFFF DUP2 GT ISZERO PUSH2 0x419 JUMPI PUSH2 0x418 PUSH2 0x37A JUMP JUMPDEST JUMPDEST PUSH2 0x425 DUP6 DUP3 DUP7 ADD PUSH2 0x38E JUMP JUMPDEST SWAP3 POP SWAP3 POP POP SWAP3 POP SWAP3 SWAP1 POP JUMP JUMPDEST PUSH1 0x0 DUP2 MLOAD SWAP1 POP SWAP2 SWAP1 POP JUMP JUMPDEST PUSH1 0x0 DUP3 DUP3 MSTORE PUSH1 0x20 DUP3 ADD SWAP1 POP SWAP3 SWAP2 POP POP JUMP JUMPDEST PUSH1 0x0 DUP2 SWAP1 POP PUSH1 0x20 DUP3 ADD SWAP1 POP SWAP2 SWAP1 POP JUMP JUMPDEST PUSH1 0x0 DUP2 ISZERO ISZERO SWAP1 POP SWAP2 SWAP1 POP JUMP JUMPDEST PUSH2 0x472 DUP2 PUSH2 0x45D JUMP JUMPDEST DUP3 MSTORE POP POP JUMP JUMPDEST PUSH1 0x0 DUP2 MLOAD SWAP1 POP SWAP2 SWAP1 POP JUMP JUMPDEST PUSH1 0x0 DUP3 DUP3 MSTORE PUSH1 0x20 DUP3 ADD SWAP1 POP SWAP3 SWAP2 POP POP JUMP JUMPDEST PUSH1 0x0 JUMPDEST DUP4 DUP2 LT ISZERO PUSH2 0x4B2 JUMPI DUP1 DUP3 ADD MLOAD DUP2 DUP5 ADD MSTORE PUSH1 0x20 DUP2 ADD SWAP1 POP PUSH2 0x497 JUMP JUMPDEST PUSH1 0x0 DUP5 DUP5 ADD MSTORE POP POP POP POP JUMP JUMPDEST PUSH1 0x0 PUSH1 0x1F NOT PUSH1 0x1F DUP4 ADD AND SWAP1 POP SWAP2 SWAP1 POP JUMP JUMPDEST PUSH1 0x0 PUSH2 0x4DA DUP3 PUSH2 0x478 JUMP JUMPDEST PUSH2 0x4E4 DUP2 DUP6 PUSH2 0x483 JUMP JUMPDEST SWAP4 POP PUSH2 0x4F4 DUP2 DUP6 PUSH1 0x20 DUP7 ADD PUSH2 0x494 JUMP JUMPDEST PUSH2 0x4FD DUP2 PUSH2 0x4BE JUMP JUMPDEST DUP5 ADD SWAP2 POP POP SWAP3 SWAP2 POP POP JUMP JUMPDEST PUSH1 0x0 PUSH1 0x40 DUP4 ADD PUSH1 0x0 DUP4 ADD MLOAD PUSH2 0x520 PUSH1 0x0 DUP7 ADD DUP3 PUSH2 0x469 JUMP JUMPDEST POP PUSH1 0x20 DUP4 ADD MLOAD DUP5 DUP3 SUB PUSH1 0x20 DUP7 ADD MSTORE PUSH2 0x538 DUP3 DUP3 PUSH2 0x4CF JUMP JUMPDEST SWAP2 POP POP DUP1 SWAP2 POP POP SWAP3 SWAP2 POP POP JUMP JUMPDEST PUSH1 0x0 PUSH2 0x551 DUP4 DUP4 PUSH2 0x508 JUMP JUMPDEST SWAP1 POP SWAP3 SWAP2 POP POP JUMP JUMPDEST PUSH1 0x0 PUSH1 0x20 DUP3 ADD SWAP1 POP SWAP2 SWAP1 POP JUMP JUMPDEST PUSH1 0x0 PUSH2 0x571 DUP3 PUSH2 0x431 JUMP JUMPDEST PUSH2 0x57B DUP2 DUP6 PUSH2 0x43C JUMP JUMPDEST SWAP4 POP DUP4 PUSH1 0x20 DUP3 MUL DUP6 ADD PUSH2 0x58D DUP6 PUSH2 0x44D JUMP JUMPDEST DUP1 PUSH1 0x0 JUMPDEST DUP6 DUP2 LT ISZERO PUSH2 0x5C9 JUMPI DUP5 DUP5 SUB DUP10 MSTORE DUP2 MLOAD PUSH2 0x5AA DUP6 DUP3 PUSH2 0x545 JUMP JUMPDEST SWAP5 POP PUSH2 0x5B5 DUP4 PUSH2 0x559 JUMP JUMPDEST SWAP3 POP PUSH1 0x20 DUP11 ADD SWAP10 POP POP PUSH1 0x1 DUP2 ADD SWAP1 POP PUSH2 0x591 JUMP JUMPDEST POP DUP3 SWAP8 POP DUP8 SWAP6 POP POP POP POP POP POP SWAP3 SWAP2 POP POP JUMP JUMPDEST PUSH1 0x0 PUSH1 0x20 DUP3 ADD SWAP1 POP DUP2 DUP2 SUB PUSH1 0x0 DUP4 ADD MSTORE PUSH2 0x5F5 DUP2 DUP5 PUSH2 0x566 JUMP JUMPDEST SWAP1 POP SWAP3 SWAP2 POP POP JUMP JUMPDEST PUSH1 0x0 PUSH20 0xFFFFFFFFFFFFFFFFFFFFFFFFFFFFFFFFFFFFFFFF DUP3 AND SWAP1 POP SWAP2 SWAP1 POP JUMP JUMPDEST PUSH1 0x0 PUSH2 0x628 DUP3 PUSH2 0x5FD JUMP JUMPDEST SWAP1 POP SWAP2 SWAP1 POP JUMP JUMPDEST PUSH2 0x638 DUP2 PUSH2 0x61D JUMP JUMPDEST DUP3 MSTORE POP POP JUMP JUMPDEST PUSH1 0x0 PUSH1 0x20 DUP3 ADD SWAP1 POP PUSH2 0x653 PUSH1 0x0 DUP4 ADD DUP5 PUSH2 0x62F JUMP JUMPDEST SWAP3 SWAP2 POP POP JUMP JUMPDEST PUSH1 0x0 DUP3 DUP3 MSTORE PUSH1 0x20 DUP3 ADD SWAP1 POP SWAP3 SWAP2 POP POP JUMP JUMPDEST PUSH32 0x4F6E6C79206F776E657200000000000000000000000000000000000000000000 PUSH1 0x0 DUP3 ADD MSTORE POP JUMP JUMPDEST PUSH1 0x0 PUSH2 0x6A0 PUSH1 0xA DUP4 PUSH2 0x659 JUMP JUMPDEST SWAP2 POP PUSH2 0x6AB DUP3 PUSH2 0x66A JUMP JUMPDEST PUSH1 0x20 DUP3 ADD SWAP1 POP SWAP2 SWAP1 POP JUMP JUMPDEST PUSH1 0x0 PUSH1 0x20 DUP3 ADD SWAP1 POP DUP2 DUP2 SUB PUSH1 0x0 DUP4 ADD MSTORE PUSH2 0x6CF DUP2 PUSH2 0x693 JUMP JUMPDEST SWAP1 POP SWAP2 SWAP1 POP JUMP JUMPDEST PUSH32 0x4E487B7100000000000000000000000000000000000000000000000000000000 PUSH1 0x0 MSTORE PUSH1 0x41 PUSH1 0x4 MSTORE PUSH1 0x24 PUSH1 0x0 REVERT JUMPDEST PUSH32 0x4E487B7100000000000000000000000000000000000000000000000000000000 PUSH1 0x0 MSTORE PUSH1 0x32 PUSH1 0x4 MSTORE PUSH1 0x24 PUSH1 0x0 REVERT JUMPDEST PUSH1 0x0 DUP1 REVERT JUMPDEST PUSH1 0x0 DUP1 REVERT JUMPDEST PUSH1 0x0 DUP1 REVERT JUMPDEST PUSH1 0x0 DUP3 CALLDATALOAD PUSH1 0x1 PUSH1 0x80 SUB DUP4 CALLDATASIZE SUB SUB DUP2 SLT PUSH2 0x75F JUMPI PUSH2 0x75E PUSH2 0x734 JUMP JUMPDEST JUMPDEST DUP1 DUP4 ADD SWAP2 POP POP SWAP3 SWAP2 POP POP JUMP JUMPDEST PUSH2 0x774 DUP2 PUSH2 0x61D JUMP JUMPDEST DUP2 EQ PUSH2 0x77F JUMPI PUSH1 0x0 DUP1 REVERT JUMPDEST POP JUMP JUMPDEST PUSH1 0x0 DUP2 CALLDATALOAD SWAP1 POP PUSH2 0x791 DUP2 PUSH2 0x76B JUMP JUMPDEST SWAP3 SWAP2 POP POP JUMP JUMPDEST PUSH1 0x0 PUSH1 0x20 DUP3 DUP5 SUB SLT ISZERO PUSH2 0x7AD JUMPI PUSH2 0x7AC PUSH2 0x375 JUMP JUMPDEST JUMPDEST PUSH1 0x0 PUSH2 0x7BB DUP5 DUP3 DUP6 ADD PUSH2 0x782 JUMP JUMPDEST SWAP2 POP POP SWAP3 SWAP2 POP POP JUMP JUMPDEST PUSH1 0x0 DUP1 DUP4 CALLDATALOAD PUSH1 0x1 PUSH1 0x20 SUB DUP5 CALLDATASIZE SUB SUB DUP2 SLT PUSH2 0x7E1 JUMPI PUSH2 0x7E0 PUSH2 0x734 JUMP JUMPDEST JUMPDEST DUP1 DUP5 ADD SWAP3 POP DUP3 CALLDATALOAD SWAP2 POP PUSH8 0xFFFFFFFFFFFFFFFF DUP3 GT ISZERO PUSH2 0x803 JUMPI PUSH2 0x802 PUSH2 0x739 JUMP JUMPDEST JUMPDEST PUSH1 0x20 DUP4 ADD SWAP3 POP PUSH1 0x1 DUP3 MUL CALLDATASIZE SUB DUP4 SGT ISZERO PUSH2 0x81F JUMPI PUSH2 0x81E PUSH2 0x73E JUMP JUMPDEST JUMPDEST POP SWAP3 POP SWAP3 SWAP1 POP JUMP JUMPDEST PUSH1 0x0 DUP2 SWAP1 POP SWAP3 SWAP2 POP POP JUMP JUMPDEST DUP3 DUP2 DUP4 CALLDATACOPY PUSH1 0x0 DUP4 DUP4 ADD MSTORE POP POP POP JUMP JUMPDEST PUSH1 0x0 PUSH2 0x84D DUP4 DUP6 PUSH2 0x827 JUMP JUMPDEST SWAP4 POP PUSH2 0x85A DUP4 DUP6 DUP5 PUSH2 0x832 JUMP JUMPDEST DUP3 DUP5 ADD SWAP1 POP SWAP4 SWAP3 POP POP POP JUMP JUMPDEST PUSH1 0x0 PUSH2 0x873 DUP3 DUP5 DUP7 PUSH2 0x841 JUMP JUMPDEST SWAP2 POP DUP2 SWAP1 POP SWAP4 SWAP3 POP POP POP JUMP JUMPDEST PUSH32 0x4D756C746963616C6C333A2076616C7565206D69736D61746368000000000000 PUSH1 0x0 DUP3 ADD MSTORE POP JUMP JUMPDEST PUSH1 0x0 PUSH2 0x8B5 PUSH1 0x1A DUP4 PUSH2 0x659 JUMP JUMPDEST SWAP2 POP PUSH2 0x8C0 DUP3 PUSH2 0x87F JUMP JUMPDEST PUSH1 0x20 DUP3 ADD SWAP1 POP SWAP2 SWAP1 POP JUMP JUMPDEST PUSH1 0x0 PUSH1 0x20 DUP3 ADD SWAP1 POP DUP2 DUP2 SUB PUSH1 0x0 DUP4 ADD MSTORE PUSH2 0x8E4 DUP2 PUSH2 0x8A8 JUMP JUMPDEST SWAP1 POP SWAP2 SWAP1 POP JUMP INVALID LOG2 PUSH5 0x6970667358 0x22 SLT KECCAK256 PUSH13 0xDB8E5E60F90C18574BD5D0B6FA PUSH27 0xD5AAFAE74E71E9D42ACAE769FFEDE8DC8A64736F6C634300081C00 CALLER "
        },
        "methodIdentifiers": {
          "aggregate3Value((address,bool,uint256,bytes)[])": "174dea71",
          "owner()": "8da5cb5b"
        }
      }
    }
  }
}